{
  "contractName": "admined",
  "abi": [
    {
      "constant": true,
      "inputs": [],
      "name": "admin",
      "outputs": [
        {
          "name": "",
          "type": "address"
        }
      ],
      "payable": false,
      "stateMutability": "view",
      "type": "function"
    },
    {
      "inputs": [],
      "payable": false,
      "stateMutability": "nonpayable",
      "type": "constructor"
    },
    {
      "constant": false,
      "inputs": [
        {
          "name": "newAdmin",
          "type": "address"
        }
      ],
      "name": "transferAdminship",
      "outputs": [],
      "payable": false,
      "stateMutability": "nonpayable",
      "type": "function"
    }
  ],
  "bytecode": "0x6060604052341561000f57600080fd5b336000806101000a81548173ffffffffffffffffffffffffffffffffffffffff021916908373ffffffffffffffffffffffffffffffffffffffff1602179055506101ce8061005e6000396000f30060606040526004361061004c576000357c0100000000000000000000000000000000000000000000000000000000900463ffffffff1680635be7cc1614610051578063f851a4401461008a575b600080fd5b341561005c57600080fd5b610088600480803573ffffffffffffffffffffffffffffffffffffffff169060200190919050506100df565b005b341561009557600080fd5b61009d61017d565b604051808273ffffffffffffffffffffffffffffffffffffffff1673ffffffffffffffffffffffffffffffffffffffff16815260200191505060405180910390f35b6000809054906101000a900473ffffffffffffffffffffffffffffffffffffffff1673ffffffffffffffffffffffffffffffffffffffff163373ffffffffffffffffffffffffffffffffffffffff1614151561013a57600080fd5b806000806101000a81548173ffffffffffffffffffffffffffffffffffffffff021916908373ffffffffffffffffffffffffffffffffffffffff16021790555050565b6000809054906101000a900473ffffffffffffffffffffffffffffffffffffffff16815600a165627a7a723058202678da49f571b6995025546c767ab047377ce31e85c0cedb950b770b8f9565810029",
  "source": "pragma solidity ^0.4.8;\n\ncontract admined {\n\taddress public admin;\n\n\tfunction admined() public {\n\t\tadmin = msg.sender;\n\t}\n\n\tmodifier onlyAdmin(){\n\t\trequire(msg.sender == admin);\n\t\t_;\n\t}\n\n\tfunction transferAdminship(address newAdmin) onlyAdmin public {\n\t\tadmin = newAdmin;\n\t}\n}\n\ncontract TCoin {\n\tmapping (address => uint256) public balanceOf;\n\tmapping (address => mapping (address => uint256)) public allowance;\n\t// balanceOf[address] = 5;\n\tstring public standard = \"TCoin v1.0\";\n\tstring public name;\n\tstring public symbol;\n\tuint8 public decimals;\n\tuint256 public totalSupply;\n\tevent Transfer(address indexed from, address indexed to, uint256 value);\n\n\tfunction TCoin(uint256 initialSupply, string tokenName, string tokenSymbol, uint8 decimalUnits) public {\n\t\tbalanceOf[msg.sender] = initialSupply;\n\t\ttotalSupply = initialSupply;\n\t\tdecimals = decimalUnits;\n\t\tsymbol = tokenSymbol;\n\t\tname = tokenName;\n\t}\n\n\tfunction transfer(address _to, uint256 _value) public {\n\t\trequire(balanceOf[msg.sender] > _value);\n\t\trequire(balanceOf[_to] + _value > balanceOf[_to]);\n\t\t// if(admin)\n\t\tbalanceOf[msg.sender] -= _value;\n\t\tbalanceOf[_to] += _value;\n\t\tTransfer(msg.sender, _to, _value);\n\t}\n\n\tfunction approve(address _spender, uint256 _value) public returns (bool success) {\n\t\tallowance[msg.sender][_spender] = _value;\n\t\treturn true;\n\t}\n\n\tfunction transferFrom(address _from, address _to, uint256 _value) public returns (bool success) {\n\t\trequire(balanceOf[_from] > _value);\n\t\trequire(balanceOf[_to] + _value > balanceOf[_to]);\n\t\trequire(_value > allowance[_from][msg.sender]);\n\t\tbalanceOf[_from] -= _value;\n\t\tbalanceOf[_to] += _value;\n\t\tallowance[_from][msg.sender] -= _value;\n\t\tTransfer(_from, _to, _value);\n\t\treturn true;\n\t}\n}",
  "sourcePath": "/Users/user/Documents/GitHub/blockchain-council_certified-smart-contract-developer/erc20/contracts/tokenCoin.sol",
  "compiler": {
    "name": "solc",
    "version": "0.4.19+commit.c4cbbb05.Emscripten.clang"
  },
  "schemaVersion": "2.0.0",
  "updatedAt": "2018-03-20T10:41:57.297Z"
}